{
  "contractName": "Ballot",
  "abi": [
    {
      "inputs": [],
      "stateMutability": "nonpayable",
      "type": "constructor"
    },
    {
      "anonymous": false,
      "inputs": [
        {
          "indexed": true,
          "internalType": "address",
          "name": "from",
          "type": "address"
        },
        {
          "indexed": true,
          "internalType": "address",
          "name": "to",
          "type": "address"
        }
      ],
      "name": "Delegate",
      "type": "event"
    },
    {
      "anonymous": false,
      "inputs": [
        {
          "indexed": true,
          "internalType": "address",
          "name": "voter",
          "type": "address"
        }
      ],
      "name": "GiveRightToVote",
      "type": "event"
    },
    {
      "anonymous": false,
      "inputs": [
        {
          "indexed": true,
          "internalType": "address",
          "name": "from",
          "type": "address"
        },
        {
          "indexed": false,
          "internalType": "string",
          "name": "proposalName",
          "type": "string"
        }
      ],
      "name": "Vote",
      "type": "event"
    },
    {
      "anonymous": false,
      "inputs": [
        {
          "indexed": false,
          "internalType": "uint256",
          "name": "votedCount",
          "type": "uint256"
        }
      ],
      "name": "VotedCount",
      "type": "event"
    },
    {
      "inputs": [],
      "name": "owner",
      "outputs": [
        {
          "internalType": "address",
          "name": "",
          "type": "address"
        }
      ],
      "stateMutability": "view",
      "type": "function",
      "constant": true
    },
    {
      "inputs": [],
      "name": "proposalCount",
      "outputs": [
        {
          "internalType": "uint256",
          "name": "",
          "type": "uint256"
        }
      ],
      "stateMutability": "view",
      "type": "function",
      "constant": true
    },
    {
      "inputs": [
        {
          "internalType": "uint256",
          "name": "",
          "type": "uint256"
        }
      ],
      "name": "proposals",
      "outputs": [
        {
          "internalType": "uint256",
          "name": "id",
          "type": "uint256"
        },
        {
          "internalType": "string",
          "name": "name",
          "type": "string"
        },
        {
          "internalType": "uint256",
          "name": "voteCount",
          "type": "uint256"
        },
        {
          "internalType": "uint256",
          "name": "age",
          "type": "uint256"
        }
      ],
      "stateMutability": "view",
      "type": "function",
      "constant": true
    },
    {
      "inputs": [],
      "name": "votedCount",
      "outputs": [
        {
          "internalType": "uint256",
          "name": "",
          "type": "uint256"
        }
      ],
      "stateMutability": "view",
      "type": "function",
      "constant": true
    },
    {
      "inputs": [],
      "name": "voterCount",
      "outputs": [
        {
          "internalType": "uint256",
          "name": "",
          "type": "uint256"
        }
      ],
      "stateMutability": "view",
      "type": "function",
      "constant": true
    },
    {
      "inputs": [
        {
          "internalType": "address",
          "name": "",
          "type": "address"
        }
      ],
      "name": "voters",
      "outputs": [
        {
          "internalType": "uint256",
          "name": "weight",
          "type": "uint256"
        },
        {
          "internalType": "bool",
          "name": "voted",
          "type": "bool"
        },
        {
          "internalType": "address",
          "name": "delegate",
          "type": "address"
        },
        {
          "internalType": "uint256",
          "name": "vote",
          "type": "uint256"
        }
      ],
      "stateMutability": "view",
      "type": "function",
      "constant": true
    },
    {
      "inputs": [
        {
          "internalType": "string",
          "name": "name",
          "type": "string"
        },
        {
          "internalType": "uint256",
          "name": "age",
          "type": "uint256"
        }
      ],
      "name": "addProposal",
      "outputs": [],
      "stateMutability": "nonpayable",
      "type": "function"
    },
    {
      "inputs": [
        {
          "internalType": "address",
          "name": "voter",
          "type": "address"
        }
      ],
      "name": "giveRightToVote",
      "outputs": [],
      "stateMutability": "nonpayable",
      "type": "function"
    },
    {
      "inputs": [
        {
          "internalType": "address",
          "name": "to",
          "type": "address"
        }
      ],
      "name": "delegate",
      "outputs": [],
      "stateMutability": "nonpayable",
      "type": "function"
    },
    {
      "inputs": [
        {
          "internalType": "uint256",
          "name": "proposal",
          "type": "uint256"
        }
      ],
      "name": "vote",
      "outputs": [],
      "stateMutability": "nonpayable",
      "type": "function"
    },
    {
      "inputs": [],
      "name": "getResult",
      "outputs": [
        {
          "components": [
            {
              "internalType": "uint256",
              "name": "id",
              "type": "uint256"
            },
            {
              "internalType": "string",
              "name": "name",
              "type": "string"
            },
            {
              "internalType": "uint256",
              "name": "voteCount",
              "type": "uint256"
            },
            {
              "internalType": "uint256",
              "name": "age",
              "type": "uint256"
            }
          ],
          "internalType": "struct Ballot.Proposal[]",
          "name": "_proposals",
          "type": "tuple[]"
        }
      ],
      "stateMutability": "view",
      "type": "function",
      "constant": true
    }
  ],
  "bytecode": "0x608060405234801561001057600080fd5b50336000806101000a81548173ffffffffffffffffffffffffffffffffffffffff021916908373ffffffffffffffffffffffffffffffffffffffff16021790555060018060008060009054906101000a900473ffffffffffffffffffffffffffffffffffffffff1673ffffffffffffffffffffffffffffffffffffffff1673ffffffffffffffffffffffffffffffffffffffff16815260200190815260200160002060000181905550600160028190555060006003819055506000600581905550611ddf806100e06000396000f3fe608060405234801561001057600080fd5b50600436106100a95760003560e01c80639e7b8d61116100715780639e7b8d6114610155578063a3ec138d14610171578063c208abdc146101a4578063da35c664146101c0578063de292789146101de578063f0232d0a146101fc576100a9565b80630121b93f146100ae578063013cf08b146100ca57806342169e48146100fd5780635c19a95c1461011b5780638da5cb5b14610137575b600080fd5b6100c860048036038101906100c39190610f7f565b61021a565b005b6100e460048036038101906100df9190610f7f565b610428565b6040516100f4949392919061104b565b60405180910390f35b6101056104f0565b6040516101129190611097565b60405180910390f35b61013560048036038101906101309190611110565b6104f6565b005b61013f6109ed565b60405161014c919061114c565b60405180910390f35b61016f600480360381019061016a9190611110565b610a11565b005b61018b60048036038101906101869190611110565b610c59565b60405161019b9493929190611182565b60405180910390f35b6101be60048036038101906101b9919061122c565b610cb6565b005b6101c8610e24565b6040516101d59190611097565b60405180910390f35b6101e6610e2a565b6040516101f3919061140a565b60405180910390f35b610204610f39565b6040516102119190611097565b60405180910390f35b6000600160003373ffffffffffffffffffffffffffffffffffffffff1673ffffffffffffffffffffffffffffffffffffffff168152602001908152602001600020905060008160000154036102a4576040517f08c379a000000000000000000000000000000000000000000000000000000000815260040161029b90611478565b60405180910390fd5b8060010160009054906101000a900460ff16156102f6576040517f08c379a00000000000000000000000000000000000000000000000000000000081526004016102ed906114e4565b60405180910390fd5b60018160010160006101000a81548160ff02191690831515021790555081816002018190555080600001546004838154811061033557610334611504565b5b906000526020600020906004020160020160008282546103559190611562565b925050819055508060000154600360008282546103729190611562565b925050819055503373ffffffffffffffffffffffffffffffffffffffff167fc8890be6e657dc734d1fb91641621bd1bc2bf263edd04e4198b4db572cc680f6600484815481106103c5576103c4611504565b5b90600052602060002090600402016001016040516103e3919061168f565b60405180910390a27f5bd2c400d3fa5c1d88b41d2f2f50f2490a135ea59a2ef2be0f9345c06bcbf84360035460405161041c9190611097565b60405180910390a15050565b6004818154811061043857600080fd5b9060005260206000209060040201600091509050806000015490806001018054610461906115c5565b80601f016020809104026020016040519081016040528092919081815260200182805461048d906115c5565b80156104da5780601f106104af576101008083540402835291602001916104da565b820191906000526020600020905b8154815290600101906020018083116104bd57829003601f168201915b5050505050908060020154908060030154905084565b60025481565b6000600160003373ffffffffffffffffffffffffffffffffffffffff1673ffffffffffffffffffffffffffffffffffffffff16815260200190815260200160002090506000816000015403610580576040517f08c379a0000000000000000000000000000000000000000000000000000000008152600401610577906116fd565b60405180910390fd5b8060010160009054906101000a900460ff166105d1576040517f08c379a00000000000000000000000000000000000000000000000000000000081526004016105c890611769565b60405180910390fd5b3373ffffffffffffffffffffffffffffffffffffffff168273ffffffffffffffffffffffffffffffffffffffff160361063f576040517f08c379a0000000000000000000000000000000000000000000000000000000008152600401610636906117d5565b60405180910390fd5b5b600073ffffffffffffffffffffffffffffffffffffffff16600160008473ffffffffffffffffffffffffffffffffffffffff1673ffffffffffffffffffffffffffffffffffffffff16815260200190815260200160002060010160019054906101000a900473ffffffffffffffffffffffffffffffffffffffff1673ffffffffffffffffffffffffffffffffffffffff16146107ae57600160008373ffffffffffffffffffffffffffffffffffffffff1673ffffffffffffffffffffffffffffffffffffffff16815260200190815260200160002060010160019054906101000a900473ffffffffffffffffffffffffffffffffffffffff1691503373ffffffffffffffffffffffffffffffffffffffff168273ffffffffffffffffffffffffffffffffffffffff16036107a9576040517f08c379a00000000000000000000000000000000000000000000000000000000081526004016107a090611841565b60405180910390fd5b610640565b6000600160008473ffffffffffffffffffffffffffffffffffffffff1673ffffffffffffffffffffffffffffffffffffffff1681526020019081526020016000209050600181600001541015610839576040517f08c379a0000000000000000000000000000000000000000000000000000000008152600401610830906118d3565b60405180910390fd5b60018260010160006101000a81548160ff021916908315150217905550828260010160016101000a81548173ffffffffffffffffffffffffffffffffffffffff021916908373ffffffffffffffffffffffffffffffffffffffff1602179055508060010160009054906101000a900460ff161561096e5781600001548160000160008282546108c89190611562565b92505081905550816000015460048260020154815481106108ec576108eb611504565b5b9060005260206000209060040201600201600082825461090c9190611562565b925050819055508160000154600360008282546109299190611562565b925050819055507f5bd2c400d3fa5c1d88b41d2f2f50f2490a135ea59a2ef2be0f9345c06bcbf8436003546040516109619190611097565b60405180910390a161098e565b81600001548160000160008282546109869190611562565b925050819055505b8273ffffffffffffffffffffffffffffffffffffffff163373ffffffffffffffffffffffffffffffffffffffff167fab7d75eccd27c9989942a3a6e4137e415df0ad90ec428751b16361f16fe8780f60405160405180910390a3505050565b60008054906101000a900473ffffffffffffffffffffffffffffffffffffffff1681565b60008054906101000a900473ffffffffffffffffffffffffffffffffffffffff1673ffffffffffffffffffffffffffffffffffffffff163373ffffffffffffffffffffffffffffffffffffffff1614610a9f576040517f08c379a0000000000000000000000000000000000000000000000000000000008152600401610a9690611965565b60405180910390fd5b600160008273ffffffffffffffffffffffffffffffffffffffff1673ffffffffffffffffffffffffffffffffffffffff16815260200190815260200160002060010160009054906101000a900460ff1615610b2f576040517f08c379a0000000000000000000000000000000000000000000000000000000008152600401610b26906119d1565b60405180910390fd5b6000600160008373ffffffffffffffffffffffffffffffffffffffff1673ffffffffffffffffffffffffffffffffffffffff1681526020019081526020016000206000015414610bb4576040517f08c379a0000000000000000000000000000000000000000000000000000000008152600401610bab90611a3d565b60405180910390fd5b60018060008373ffffffffffffffffffffffffffffffffffffffff1673ffffffffffffffffffffffffffffffffffffffff1681526020019081526020016000206000018190555060026000815480929190610c0e90611a5d565b91905055508073ffffffffffffffffffffffffffffffffffffffff167faf41c3ab39410a9699b71c53288271a2b4ed3193b20bd51ed9049742230117a060405160405180910390a250565b60016020528060005260406000206000915090508060000154908060010160009054906101000a900460ff16908060010160019054906101000a900473ffffffffffffffffffffffffffffffffffffffff16908060020154905084565b60008054906101000a900473ffffffffffffffffffffffffffffffffffffffff1673ffffffffffffffffffffffffffffffffffffffff163373ffffffffffffffffffffffffffffffffffffffff1614610d44576040517f08c379a0000000000000000000000000000000000000000000000000000000008152600401610d3b90611af1565b60405180910390fd5b60046040518060800160405280600560008154610d6090611a5d565b919050819055815260200185858080601f016020809104026020016040519081016040528093929190818152602001838380828437600081840152601f19601f82011690508083019250505050505050815260200160008152602001838152509080600181540180825580915050600190039060005260206000209060040201600090919091909150600082015181600001556020820151816001019081610e089190611cd7565b5060408201518160020155606082015181600301555050505050565b60055481565b60606004805480602002602001604051908101604052809291908181526020016000905b82821015610f30578382906000526020600020906004020160405180608001604052908160008201548152602001600182018054610e8b906115c5565b80601f0160208091040260200160405190810160405280929190818152602001828054610eb7906115c5565b8015610f045780601f10610ed957610100808354040283529160200191610f04565b820191906000526020600020905b815481529060010190602001808311610ee757829003601f168201915b505050505081526020016002820154815260200160038201548152505081526020019060010190610e4e565b50505050905090565b60035481565b600080fd5b600080fd5b6000819050919050565b610f5c81610f49565b8114610f6757600080fd5b50565b600081359050610f7981610f53565b92915050565b600060208284031215610f9557610f94610f3f565b5b6000610fa384828501610f6a565b91505092915050565b610fb581610f49565b82525050565b600081519050919050565b600082825260208201905092915050565b60005b83811015610ff5578082015181840152602081019050610fda565b60008484015250505050565b6000601f19601f8301169050919050565b600061101d82610fbb565b6110278185610fc6565b9350611037818560208601610fd7565b61104081611001565b840191505092915050565b60006080820190506110606000830187610fac565b81810360208301526110728186611012565b90506110816040830185610fac565b61108e6060830184610fac565b95945050505050565b60006020820190506110ac6000830184610fac565b92915050565b600073ffffffffffffffffffffffffffffffffffffffff82169050919050565b60006110dd826110b2565b9050919050565b6110ed816110d2565b81146110f857600080fd5b50565b60008135905061110a816110e4565b92915050565b60006020828403121561112657611125610f3f565b5b6000611134848285016110fb565b91505092915050565b611146816110d2565b82525050565b6000602082019050611161600083018461113d565b92915050565b60008115159050919050565b61117c81611167565b82525050565b60006080820190506111976000830187610fac565b6111a46020830186611173565b6111b1604083018561113d565b6111be6060830184610fac565b95945050505050565b600080fd5b600080fd5b600080fd5b60008083601f8401126111ec576111eb6111c7565b5b8235905067ffffffffffffffff811115611209576112086111cc565b5b602083019150836001820283011115611225576112246111d1565b5b9250929050565b60008060006040848603121561124557611244610f3f565b5b600084013567ffffffffffffffff81111561126357611262610f44565b5b61126f868287016111d6565b9350935050602061128286828701610f6a565b9150509250925092565b600081519050919050565b600082825260208201905092915050565b6000819050602082019050919050565b6112c181610f49565b82525050565b600082825260208201905092915050565b60006112e382610fbb565b6112ed81856112c7565b93506112fd818560208601610fd7565b61130681611001565b840191505092915050565b600060808301600083015161132960008601826112b8565b506020830151848203602086015261134182826112d8565b915050604083015161135660408601826112b8565b50606083015161136960608601826112b8565b508091505092915050565b60006113808383611311565b905092915050565b6000602082019050919050565b60006113a08261128c565b6113aa8185611297565b9350836020820285016113bc856112a8565b8060005b858110156113f857848403895281516113d98582611374565b94506113e483611388565b925060208a019950506001810190506113c0565b50829750879550505050505092915050565b600060208201905081810360008301526114248184611395565b905092915050565b7f486173206e6f20726967687420746f20766f7465000000000000000000000000600082015250565b6000611462601483610fc6565b915061146d8261142c565b602082019050919050565b6000602082019050818103600083015261149181611455565b9050919050565b7f416c726561647920766f7465642e000000000000000000000000000000000000600082015250565b60006114ce600e83610fc6565b91506114d982611498565b602082019050919050565b600060208201905081810360008301526114fd816114c1565b9050919050565b7f4e487b7100000000000000000000000000000000000000000000000000000000600052603260045260246000fd5b7f4e487b7100000000000000000000000000000000000000000000000000000000600052601160045260246000fd5b600061156d82610f49565b915061157883610f49565b92508282019050808211156115905761158f611533565b5b92915050565b7f4e487b7100000000000000000000000000000000000000000000000000000000600052602260045260246000fd5b600060028204905060018216806115dd57607f821691505b6020821081036115f0576115ef611596565b5b50919050565b60008190508160005260206000209050919050565b60008154611618816115c5565b6116228186610fc6565b9450600182166000811461163d576001811461165357611686565b60ff198316865281151560200286019350611686565b61165c856115f6565b60005b8381101561167e5781548189015260018201915060208101905061165f565b808801955050505b50505092915050565b600060208201905081810360008301526116a9818461160b565b905092915050565b7f596f752068617665206e6f20726967687420746f20766f746500000000000000600082015250565b60006116e7601983610fc6565b91506116f2826116b1565b602082019050919050565b60006020820190508181036000830152611716816116da565b9050919050565b7f596f7520616c726561647920766f7465642e0000000000000000000000000000600082015250565b6000611753601283610fc6565b915061175e8261171d565b602082019050919050565b6000602082019050818103600083015261178281611746565b9050919050565b7f53656c662d64656c65676174696f6e20697320646973616c6c6f7765642e0000600082015250565b60006117bf601e83610fc6565b91506117ca82611789565b602082019050919050565b600060208201905081810360008301526117ee816117b2565b9050919050565b7f466f756e64206c6f6f7020696e2064656c65676174696f6e2e00000000000000600082015250565b600061182b601983610fc6565b9150611836826117f5565b602082019050919050565b6000602082019050818103600083015261185a8161181e565b9050919050565b7f43616e6e6f742064656c656761746520746f206163636f756e7473207468617460008201527f2063616e6e6f7420766f74650000000000000000000000000000000000000000602082015250565b60006118bd602c83610fc6565b91506118c882611861565b604082019050919050565b600060208201905081810360008301526118ec816118b0565b9050919050565b7f4f6e6c79206f776e65722063616e206769766520726967687420746f20766f7460008201527f652e000000000000000000000000000000000000000000000000000000000000602082015250565b600061194f602283610fc6565b915061195a826118f3565b604082019050919050565b6000602082019050818103600083015261197e81611942565b9050919050565b7f54686520766f74657220616c726561647920766f7465642e0000000000000000600082015250565b60006119bb601883610fc6565b91506119c682611985565b602082019050919050565b600060208201905081810360008301526119ea816119ae565b9050919050565b7f54686520766f74657220616c7265616479206861642074686520726967687400600082015250565b6000611a27601f83610fc6565b9150611a32826119f1565b602082019050919050565b60006020820190508181036000830152611a5681611a1a565b9050919050565b6000611a6882610f49565b91507fffffffffffffffffffffffffffffffffffffffffffffffffffffffffffffffff8203611a9a57611a99611533565b5b600182019050919050565b7f4f6e6c79206f776e65722063616e206164642070726f706f73616c2e00000000600082015250565b6000611adb601c83610fc6565b9150611ae682611aa5565b602082019050919050565b60006020820190508181036000830152611b0a81611ace565b9050919050565b7f4e487b7100000000000000000000000000000000000000000000000000000000600052604160045260246000fd5b60006020601f8301049050919050565b600082821b905092915050565b600060088302611b8d7fffffffffffffffffffffffffffffffffffffffffffffffffffffffffffffffff82611b50565b611b978683611b50565b95508019841693508086168417925050509392505050565b6000819050919050565b6000611bd4611bcf611bca84610f49565b611baf565b610f49565b9050919050565b6000819050919050565b611bee83611bb9565b611c02611bfa82611bdb565b848454611b5d565b825550505050565b600090565b611c17611c0a565b611c22818484611be5565b505050565b5b81811015611c4657611c3b600082611c0f565b600181019050611c28565b5050565b601f821115611c8b57611c5c816115f6565b611c6584611b40565b81016020851015611c74578190505b611c88611c8085611b40565b830182611c27565b50505b505050565b600082821c905092915050565b6000611cae60001984600802611c90565b1980831691505092915050565b6000611cc78383611c9d565b9150826002028217905092915050565b611ce082610fbb565b67ffffffffffffffff811115611cf957611cf8611b11565b5b611d0382546115c5565b611d0e828285611c4a565b600060209050601f831160018114611d415760008415611d2f578287015190505b611d398582611cbb565b865550611da1565b601f198416611d4f866115f6565b60005b82811015611d7757848901518255600182019150602085019450602081019050611d52565b86831015611d945784890151611d90601f891682611c9d565b8355505b6001600288020188555050505b50505050505056fea2646970667358221220d1f81a89abd6b5d5bc7243041295ed5e34dc461fb8d8c471f46ad2cc69fbc90764736f6c63430008110033",
  "immutableReferences": {},
  "source": "// SPDX-License-Identifier: MIT\r\npragma solidity ^0.8.17;\r\n\r\ncontract Ballot {\r\n    struct Voter {\r\n        uint weight;\r\n        bool voted;\r\n        address delegate;\r\n        uint vote;\r\n    }\r\n\r\n    struct Proposal {\r\n        uint id;\r\n        string name;   \r\n        uint voteCount;\r\n        uint age;\r\n    }\r\n\r\n    address public owner;\r\n    mapping(address => Voter) public voters;\r\n    uint public voterCount;\r\n    uint public votedCount;\r\n    Proposal[] public proposals;\r\n    uint public proposalCount;\r\n\r\n    event GiveRightToVote(address indexed voter);\r\n    event Delegate(address indexed from, address indexed to);\r\n    event Vote(address indexed from, string proposalName);\r\n    event VotedCount(uint votedCount);\r\n\r\n    // constructor() {\r\n    //     owner = msg.sender;\r\n    //     voters[owner].weight = 1;\r\n    //     voterCount = 1;\r\n    //     votedCount = 0;\r\n    //     proposalCount = 0;\r\n    // }\r\n\r\n    constructor() {\r\n        owner = msg.sender;\r\n        voters[owner].weight = 1;\r\n        voterCount = 1;\r\n        votedCount = 0;\r\n        proposalCount = 0;\r\n    }\r\n\r\n    function addProposal(string calldata name, uint age) external {\r\n        require(\r\n            msg.sender == owner,\r\n            \"Only owner can add proposal.\"\r\n        );\r\n        proposals.push(Proposal({\r\n            id: ++proposalCount,\r\n            name: name,\r\n            voteCount: 0,\r\n            age: age\r\n        }));\r\n    }\r\n\r\n    function giveRightToVote(address voter) external {\r\n        require(\r\n            msg.sender == owner,\r\n            \"Only owner can give right to vote.\"\r\n        );\r\n        require(\r\n            !voters[voter].voted,\r\n            \"The voter already voted.\"\r\n        );\r\n        require(\r\n            voters[voter].weight == 0, \r\n            \"The voter already had the right\"\r\n        );\r\n\r\n        voters[voter].weight = 1;\r\n        voterCount++;\r\n\r\n        emit GiveRightToVote(voter);\r\n    }\r\n    \r\n    function delegate(address to) external {\r\n        Voter storage sender = voters[msg.sender];\r\n\r\n        require(\r\n            sender.weight != 0,\r\n            \"You have no right to vote\"\r\n        );\r\n        require(\r\n            sender.voted,\r\n            \"You already voted.\"\r\n        );\r\n\r\n        require(\r\n            to != msg.sender, \r\n            \"Self-delegation is disallowed.\"\r\n        );\r\n\r\n        while (voters[to].delegate != address(0)) {\r\n            to = voters[to].delegate;\r\n\r\n            // We found a loop in the delegation, not allowed.\r\n            require(\r\n                to != msg.sender, \r\n                \"Found loop in delegation.\"\r\n            );\r\n        }\r\n\r\n        Voter storage _delegate = voters[to];\r\n\r\n        require(\r\n            _delegate.weight >= 1,\r\n            \"Cannot delegate to accounts that cannot vote\"\r\n        );\r\n\r\n        // Since sender is a reference, this\r\n        // modifies voters[msg.sender].\r\n        sender.voted = true;\r\n        sender.delegate = to;\r\n\r\n        if (_delegate.voted) {\r\n            _delegate.weight += sender.weight;\r\n            proposals[_delegate.vote].voteCount += sender.weight;\r\n            votedCount += sender.weight;\r\n            emit VotedCount(votedCount);\r\n        } else {\r\n            _delegate.weight += sender.weight;\r\n        }\r\n        \r\n        emit Delegate(msg.sender, to);\r\n    }\r\n\r\n    function vote(uint proposal) external {\r\n        Voter storage sender = voters[msg.sender];\r\n        require(sender.weight != 0, \"Has no right to vote\");\r\n        require(!sender.voted, \"Already voted.\");\r\n        sender.voted = true;\r\n        sender.vote = proposal;\r\n\r\n        proposals[proposal].voteCount += sender.weight;\r\n        votedCount += sender.weight;\r\n        \r\n        \r\n        emit Vote(msg.sender, proposals[proposal].name);\r\n        emit VotedCount(votedCount);\r\n    }\r\n\r\n    function getResult() public view\r\n            returns (Proposal[] memory _proposals)\r\n    {\r\n        _proposals = proposals;\r\n    }\r\n}",
  "sourcePath": "C:\\Users\\WBPC.VN\\VS Code\\Voting_system\\contracts\\Ballot.sol",
  "compiler": {
    "name": "solc",
    "version": "0.8.17+commit.8df45f5f.Emscripten.clang"
  },
  "schemaVersion": "3.4.11",
  "updatedAt": "2023-01-30T16:05:40.781Z",
  "networkType": "ethereum",
  "devdoc": {
    "kind": "dev",
    "methods": {},
    "version": 1
  },
  "userdoc": {
    "kind": "user",
    "methods": {},
    "version": 1
  }
}