{
  "contractName": "Ballot",
  "abi": [
    {
      "inputs": [],
      "stateMutability": "nonpayable",
      "type": "constructor"
    },
    {
      "anonymous": false,
      "inputs": [
        {
          "indexed": true,
          "internalType": "address",
          "name": "from",
          "type": "address"
        },
        {
          "indexed": true,
          "internalType": "address",
          "name": "to",
          "type": "address"
        }
      ],
      "name": "Delegate",
      "type": "event"
    },
    {
      "anonymous": false,
      "inputs": [
        {
          "indexed": true,
          "internalType": "address",
          "name": "voter",
          "type": "address"
        }
      ],
      "name": "GiveRightToVote",
      "type": "event"
    },
    {
      "anonymous": false,
      "inputs": [
        {
          "indexed": true,
          "internalType": "address",
          "name": "from",
          "type": "address"
        },
        {
          "indexed": false,
          "internalType": "string",
          "name": "proposalName",
          "type": "string"
        }
      ],
      "name": "Vote",
      "type": "event"
    },
    {
      "anonymous": false,
      "inputs": [
        {
          "indexed": false,
          "internalType": "uint256",
          "name": "votedCount",
          "type": "uint256"
        }
      ],
      "name": "VotedCount",
      "type": "event"
    },
    {
      "inputs": [],
      "name": "owner",
      "outputs": [
        {
          "internalType": "address",
          "name": "",
          "type": "address"
        }
      ],
      "stateMutability": "view",
      "type": "function",
      "constant": true
    },
    {
      "inputs": [],
      "name": "proposalCount",
      "outputs": [
        {
          "internalType": "uint256",
          "name": "",
          "type": "uint256"
        }
      ],
      "stateMutability": "view",
      "type": "function",
      "constant": true
    },
    {
      "inputs": [
        {
          "internalType": "uint256",
          "name": "",
          "type": "uint256"
        }
      ],
      "name": "proposals",
      "outputs": [
        {
          "internalType": "uint256",
          "name": "id",
          "type": "uint256"
        },
        {
          "internalType": "string",
          "name": "name",
          "type": "string"
        },
        {
          "internalType": "uint256",
          "name": "voteCount",
          "type": "uint256"
        },
        {
          "internalType": "uint256",
          "name": "age",
          "type": "uint256"
        }
      ],
      "stateMutability": "view",
      "type": "function",
      "constant": true
    },
    {
      "inputs": [],
      "name": "votedCount",
      "outputs": [
        {
          "internalType": "uint256",
          "name": "",
          "type": "uint256"
        }
      ],
      "stateMutability": "view",
      "type": "function",
      "constant": true
    },
    {
      "inputs": [],
      "name": "voterCount",
      "outputs": [
        {
          "internalType": "uint256",
          "name": "",
          "type": "uint256"
        }
      ],
      "stateMutability": "view",
      "type": "function",
      "constant": true
    },
    {
      "inputs": [
        {
          "internalType": "address",
          "name": "",
          "type": "address"
        }
      ],
      "name": "voters",
      "outputs": [
        {
          "internalType": "uint256",
          "name": "weight",
          "type": "uint256"
        },
        {
          "internalType": "bool",
          "name": "voted",
          "type": "bool"
        },
        {
          "internalType": "address",
          "name": "delegate",
          "type": "address"
        },
        {
          "internalType": "uint256",
          "name": "vote",
          "type": "uint256"
        }
      ],
      "stateMutability": "view",
      "type": "function",
      "constant": true
    },
    {
      "inputs": [
        {
          "internalType": "string",
          "name": "name",
          "type": "string"
        },
        {
          "internalType": "uint256",
          "name": "age",
          "type": "uint256"
        }
      ],
      "name": "addProposal",
      "outputs": [],
      "stateMutability": "nonpayable",
      "type": "function"
    },
    {
      "inputs": [
        {
          "internalType": "address",
          "name": "voter",
          "type": "address"
        }
      ],
      "name": "giveRightToVote",
      "outputs": [],
      "stateMutability": "nonpayable",
      "type": "function"
    },
    {
      "inputs": [
        {
          "internalType": "address",
          "name": "to",
          "type": "address"
        }
      ],
      "name": "delegate",
      "outputs": [],
      "stateMutability": "nonpayable",
      "type": "function"
    },
    {
      "inputs": [
        {
          "internalType": "uint256",
          "name": "proposalId",
          "type": "uint256"
        }
      ],
      "name": "vote",
      "outputs": [],
      "stateMutability": "nonpayable",
      "type": "function"
    },
    {
      "inputs": [],
      "name": "getResult",
      "outputs": [
        {
          "components": [
            {
              "internalType": "uint256",
              "name": "id",
              "type": "uint256"
            },
            {
              "internalType": "string",
              "name": "name",
              "type": "string"
            },
            {
              "internalType": "uint256",
              "name": "voteCount",
              "type": "uint256"
            },
            {
              "internalType": "uint256",
              "name": "age",
              "type": "uint256"
            }
          ],
          "internalType": "struct Ballot.Proposal[]",
          "name": "_proposals",
          "type": "tuple[]"
        }
      ],
      "stateMutability": "view",
      "type": "function",
      "constant": true
    }
  ],
  "bytecode": "0x608060405234801561001057600080fd5b50336000806101000a81548173ffffffffffffffffffffffffffffffffffffffff021916908373ffffffffffffffffffffffffffffffffffffffff16021790555060018060008060009054906101000a900473ffffffffffffffffffffffffffffffffffffffff1673ffffffffffffffffffffffffffffffffffffffff1673ffffffffffffffffffffffffffffffffffffffff16815260200190815260200160002060000181905550600160028190555060006003819055506000600581905550611e2c806100e06000396000f3fe608060405234801561001057600080fd5b50600436106100a95760003560e01c80639e7b8d61116100715780639e7b8d6114610155578063a3ec138d14610171578063c208abdc146101a4578063da35c664146101c0578063de292789146101de578063f0232d0a146101fc576100a9565b80630121b93f146100ae578063013cf08b146100ca57806342169e48146100fd5780635c19a95c1461011b5780638da5cb5b14610137575b600080fd5b6100c860048036038101906100c39190610f98565b61021a565b005b6100e460048036038101906100df9190610f98565b610440565b6040516100f49493929190611064565b60405180910390f35b610105610508565b60405161011291906110b0565b60405180910390f35b61013560048036038101906101309190611129565b61050e565b005b61013f610a06565b60405161014c9190611165565b60405180910390f35b61016f600480360381019061016a9190611129565b610a2a565b005b61018b60048036038101906101869190611129565b610c72565b60405161019b949392919061119b565b60405180910390f35b6101be60048036038101906101b99190611245565b610ccf565b005b6101c8610e3d565b6040516101d591906110b0565b60405180910390f35b6101e6610e43565b6040516101f39190611423565b60405180910390f35b610204610f52565b60405161021191906110b0565b60405180910390f35b6000600160003373ffffffffffffffffffffffffffffffffffffffff1673ffffffffffffffffffffffffffffffffffffffff168152602001908152602001600020905060008160000154036102a4576040517f08c379a000000000000000000000000000000000000000000000000000000000815260040161029b90611491565b60405180910390fd5b8060010160009054906101000a900460ff16156102f6576040517f08c379a00000000000000000000000000000000000000000000000000000000081526004016102ed906114fd565b60405180910390fd5b60018160010160006101000a81548160ff02191690831515021790555081816002018190555080600001546004600184610330919061154c565b8154811061034157610340611580565b5b9060005260206000209060040201600201600082825461036191906115af565b9250508190555080600001546003600082825461037e91906115af565b925050819055503373ffffffffffffffffffffffffffffffffffffffff167fc8890be6e657dc734d1fb91641621bd1bc2bf263edd04e4198b4db572cc680f660046001856103cc919061154c565b815481106103dd576103dc611580565b5b90600052602060002090600402016001016040516103fb91906116dc565b60405180910390a27f5bd2c400d3fa5c1d88b41d2f2f50f2490a135ea59a2ef2be0f9345c06bcbf84360035460405161043491906110b0565b60405180910390a15050565b6004818154811061045057600080fd5b906000526020600020906004020160009150905080600001549080600101805461047990611612565b80601f01602080910402602001604051908101604052809291908181526020018280546104a590611612565b80156104f25780601f106104c7576101008083540402835291602001916104f2565b820191906000526020600020905b8154815290600101906020018083116104d557829003601f168201915b5050505050908060020154908060030154905084565b60025481565b6000600160003373ffffffffffffffffffffffffffffffffffffffff1673ffffffffffffffffffffffffffffffffffffffff16815260200190815260200160002090506000816000015403610598576040517f08c379a000000000000000000000000000000000000000000000000000000000815260040161058f9061174a565b60405180910390fd5b8060010160009054906101000a900460ff16156105ea576040517f08c379a00000000000000000000000000000000000000000000000000000000081526004016105e1906117b6565b60405180910390fd5b3373ffffffffffffffffffffffffffffffffffffffff168273ffffffffffffffffffffffffffffffffffffffff1603610658576040517f08c379a000000000000000000000000000000000000000000000000000000000815260040161064f90611822565b60405180910390fd5b5b600073ffffffffffffffffffffffffffffffffffffffff16600160008473ffffffffffffffffffffffffffffffffffffffff1673ffffffffffffffffffffffffffffffffffffffff16815260200190815260200160002060010160019054906101000a900473ffffffffffffffffffffffffffffffffffffffff1673ffffffffffffffffffffffffffffffffffffffff16146107c757600160008373ffffffffffffffffffffffffffffffffffffffff1673ffffffffffffffffffffffffffffffffffffffff16815260200190815260200160002060010160019054906101000a900473ffffffffffffffffffffffffffffffffffffffff1691503373ffffffffffffffffffffffffffffffffffffffff168273ffffffffffffffffffffffffffffffffffffffff16036107c2576040517f08c379a00000000000000000000000000000000000000000000000000000000081526004016107b99061188e565b60405180910390fd5b610659565b6000600160008473ffffffffffffffffffffffffffffffffffffffff1673ffffffffffffffffffffffffffffffffffffffff1681526020019081526020016000209050600181600001541015610852576040517f08c379a000000000000000000000000000000000000000000000000000000000815260040161084990611920565b60405180910390fd5b60018260010160006101000a81548160ff021916908315150217905550828260010160016101000a81548173ffffffffffffffffffffffffffffffffffffffff021916908373ffffffffffffffffffffffffffffffffffffffff1602179055508060010160009054906101000a900460ff16156109875781600001548160000160008282546108e191906115af565b925050819055508160000154600482600201548154811061090557610904611580565b5b9060005260206000209060040201600201600082825461092591906115af565b9250508190555081600001546003600082825461094291906115af565b925050819055507f5bd2c400d3fa5c1d88b41d2f2f50f2490a135ea59a2ef2be0f9345c06bcbf84360035460405161097a91906110b0565b60405180910390a16109a7565b816000015481600001600082825461099f91906115af565b925050819055505b8273ffffffffffffffffffffffffffffffffffffffff163373ffffffffffffffffffffffffffffffffffffffff167fab7d75eccd27c9989942a3a6e4137e415df0ad90ec428751b16361f16fe8780f60405160405180910390a3505050565b60008054906101000a900473ffffffffffffffffffffffffffffffffffffffff1681565b60008054906101000a900473ffffffffffffffffffffffffffffffffffffffff1673ffffffffffffffffffffffffffffffffffffffff163373ffffffffffffffffffffffffffffffffffffffff1614610ab8576040517f08c379a0000000000000000000000000000000000000000000000000000000008152600401610aaf906119b2565b60405180910390fd5b600160008273ffffffffffffffffffffffffffffffffffffffff1673ffffffffffffffffffffffffffffffffffffffff16815260200190815260200160002060010160009054906101000a900460ff1615610b48576040517f08c379a0000000000000000000000000000000000000000000000000000000008152600401610b3f90611a1e565b60405180910390fd5b6000600160008373ffffffffffffffffffffffffffffffffffffffff1673ffffffffffffffffffffffffffffffffffffffff1681526020019081526020016000206000015414610bcd576040517f08c379a0000000000000000000000000000000000000000000000000000000008152600401610bc490611a8a565b60405180910390fd5b60018060008373ffffffffffffffffffffffffffffffffffffffff1673ffffffffffffffffffffffffffffffffffffffff1681526020019081526020016000206000018190555060026000815480929190610c2790611aaa565b91905055508073ffffffffffffffffffffffffffffffffffffffff167faf41c3ab39410a9699b71c53288271a2b4ed3193b20bd51ed9049742230117a060405160405180910390a250565b60016020528060005260406000206000915090508060000154908060010160009054906101000a900460ff16908060010160019054906101000a900473ffffffffffffffffffffffffffffffffffffffff16908060020154905084565b60008054906101000a900473ffffffffffffffffffffffffffffffffffffffff1673ffffffffffffffffffffffffffffffffffffffff163373ffffffffffffffffffffffffffffffffffffffff1614610d5d576040517f08c379a0000000000000000000000000000000000000000000000000000000008152600401610d5490611b3e565b60405180910390fd5b60046040518060800160405280600560008154610d7990611aaa565b919050819055815260200185858080601f016020809104026020016040519081016040528093929190818152602001838380828437600081840152601f19601f82011690508083019250505050505050815260200160008152602001838152509080600181540180825580915050600190039060005260206000209060040201600090919091909150600082015181600001556020820151816001019081610e219190611d24565b5060408201518160020155606082015181600301555050505050565b60055481565b60606004805480602002602001604051908101604052809291908181526020016000905b82821015610f49578382906000526020600020906004020160405180608001604052908160008201548152602001600182018054610ea490611612565b80601f0160208091040260200160405190810160405280929190818152602001828054610ed090611612565b8015610f1d5780601f10610ef257610100808354040283529160200191610f1d565b820191906000526020600020905b815481529060010190602001808311610f0057829003601f168201915b505050505081526020016002820154815260200160038201548152505081526020019060010190610e67565b50505050905090565b60035481565b600080fd5b600080fd5b6000819050919050565b610f7581610f62565b8114610f8057600080fd5b50565b600081359050610f9281610f6c565b92915050565b600060208284031215610fae57610fad610f58565b5b6000610fbc84828501610f83565b91505092915050565b610fce81610f62565b82525050565b600081519050919050565b600082825260208201905092915050565b60005b8381101561100e578082015181840152602081019050610ff3565b60008484015250505050565b6000601f19601f8301169050919050565b600061103682610fd4565b6110408185610fdf565b9350611050818560208601610ff0565b6110598161101a565b840191505092915050565b60006080820190506110796000830187610fc5565b818103602083015261108b818661102b565b905061109a6040830185610fc5565b6110a76060830184610fc5565b95945050505050565b60006020820190506110c56000830184610fc5565b92915050565b600073ffffffffffffffffffffffffffffffffffffffff82169050919050565b60006110f6826110cb565b9050919050565b611106816110eb565b811461111157600080fd5b50565b600081359050611123816110fd565b92915050565b60006020828403121561113f5761113e610f58565b5b600061114d84828501611114565b91505092915050565b61115f816110eb565b82525050565b600060208201905061117a6000830184611156565b92915050565b60008115159050919050565b61119581611180565b82525050565b60006080820190506111b06000830187610fc5565b6111bd602083018661118c565b6111ca6040830185611156565b6111d76060830184610fc5565b95945050505050565b600080fd5b600080fd5b600080fd5b60008083601f840112611205576112046111e0565b5b8235905067ffffffffffffffff811115611222576112216111e5565b5b60208301915083600182028301111561123e5761123d6111ea565b5b9250929050565b60008060006040848603121561125e5761125d610f58565b5b600084013567ffffffffffffffff81111561127c5761127b610f5d565b5b611288868287016111ef565b9350935050602061129b86828701610f83565b9150509250925092565b600081519050919050565b600082825260208201905092915050565b6000819050602082019050919050565b6112da81610f62565b82525050565b600082825260208201905092915050565b60006112fc82610fd4565b61130681856112e0565b9350611316818560208601610ff0565b61131f8161101a565b840191505092915050565b600060808301600083015161134260008601826112d1565b506020830151848203602086015261135a82826112f1565b915050604083015161136f60408601826112d1565b50606083015161138260608601826112d1565b508091505092915050565b6000611399838361132a565b905092915050565b6000602082019050919050565b60006113b9826112a5565b6113c381856112b0565b9350836020820285016113d5856112c1565b8060005b8581101561141157848403895281516113f2858261138d565b94506113fd836113a1565b925060208a019950506001810190506113d9565b50829750879550505050505092915050565b6000602082019050818103600083015261143d81846113ae565b905092915050565b7f486173206e6f20726967687420746f20766f7465000000000000000000000000600082015250565b600061147b601483610fdf565b915061148682611445565b602082019050919050565b600060208201905081810360008301526114aa8161146e565b9050919050565b7f416c726561647920766f7465642e000000000000000000000000000000000000600082015250565b60006114e7600e83610fdf565b91506114f2826114b1565b602082019050919050565b60006020820190508181036000830152611516816114da565b9050919050565b7f4e487b7100000000000000000000000000000000000000000000000000000000600052601160045260246000fd5b600061155782610f62565b915061156283610f62565b925082820390508181111561157a5761157961151d565b5b92915050565b7f4e487b7100000000000000000000000000000000000000000000000000000000600052603260045260246000fd5b60006115ba82610f62565b91506115c583610f62565b92508282019050808211156115dd576115dc61151d565b5b92915050565b7f4e487b7100000000000000000000000000000000000000000000000000000000600052602260045260246000fd5b6000600282049050600182168061162a57607f821691505b60208210810361163d5761163c6115e3565b5b50919050565b60008190508160005260206000209050919050565b6000815461166581611612565b61166f8186610fdf565b9450600182166000811461168a57600181146116a0576116d3565b60ff1983168652811515602002860193506116d3565b6116a985611643565b60005b838110156116cb578154818901526001820191506020810190506116ac565b808801955050505b50505092915050565b600060208201905081810360008301526116f68184611658565b905092915050565b7f596f752068617665206e6f20726967687420746f20766f746500000000000000600082015250565b6000611734601983610fdf565b915061173f826116fe565b602082019050919050565b6000602082019050818103600083015261176381611727565b9050919050565b7f596f7520616c726561647920766f7465642e0000000000000000000000000000600082015250565b60006117a0601283610fdf565b91506117ab8261176a565b602082019050919050565b600060208201905081810360008301526117cf81611793565b9050919050565b7f53656c662d64656c65676174696f6e20697320646973616c6c6f7765642e0000600082015250565b600061180c601e83610fdf565b9150611817826117d6565b602082019050919050565b6000602082019050818103600083015261183b816117ff565b9050919050565b7f466f756e64206c6f6f7020696e2064656c65676174696f6e2e00000000000000600082015250565b6000611878601983610fdf565b915061188382611842565b602082019050919050565b600060208201905081810360008301526118a78161186b565b9050919050565b7f43616e6e6f742064656c656761746520746f206163636f756e7473207468617460008201527f2063616e6e6f7420766f74650000000000000000000000000000000000000000602082015250565b600061190a602c83610fdf565b9150611915826118ae565b604082019050919050565b60006020820190508181036000830152611939816118fd565b9050919050565b7f4f6e6c79206f776e65722063616e206769766520726967687420746f20766f7460008201527f652e000000000000000000000000000000000000000000000000000000000000602082015250565b600061199c602283610fdf565b91506119a782611940565b604082019050919050565b600060208201905081810360008301526119cb8161198f565b9050919050565b7f54686520766f74657220616c726561647920766f7465642e0000000000000000600082015250565b6000611a08601883610fdf565b9150611a13826119d2565b602082019050919050565b60006020820190508181036000830152611a37816119fb565b9050919050565b7f54686520766f74657220616c7265616479206861642074686520726967687400600082015250565b6000611a74601f83610fdf565b9150611a7f82611a3e565b602082019050919050565b60006020820190508181036000830152611aa381611a67565b9050919050565b6000611ab582610f62565b91507fffffffffffffffffffffffffffffffffffffffffffffffffffffffffffffffff8203611ae757611ae661151d565b5b600182019050919050565b7f4f6e6c79206f776e65722063616e206164642070726f706f73616c2e00000000600082015250565b6000611b28601c83610fdf565b9150611b3382611af2565b602082019050919050565b60006020820190508181036000830152611b5781611b1b565b9050919050565b7f4e487b7100000000000000000000000000000000000000000000000000000000600052604160045260246000fd5b60006020601f8301049050919050565b600082821b905092915050565b600060088302611bda7fffffffffffffffffffffffffffffffffffffffffffffffffffffffffffffffff82611b9d565b611be48683611b9d565b95508019841693508086168417925050509392505050565b6000819050919050565b6000611c21611c1c611c1784610f62565b611bfc565b610f62565b9050919050565b6000819050919050565b611c3b83611c06565b611c4f611c4782611c28565b848454611baa565b825550505050565b600090565b611c64611c57565b611c6f818484611c32565b505050565b5b81811015611c9357611c88600082611c5c565b600181019050611c75565b5050565b601f821115611cd857611ca981611643565b611cb284611b8d565b81016020851015611cc1578190505b611cd5611ccd85611b8d565b830182611c74565b50505b505050565b600082821c905092915050565b6000611cfb60001984600802611cdd565b1980831691505092915050565b6000611d148383611cea565b9150826002028217905092915050565b611d2d82610fd4565b67ffffffffffffffff811115611d4657611d45611b5e565b5b611d508254611612565b611d5b828285611c97565b600060209050601f831160018114611d8e5760008415611d7c578287015190505b611d868582611d08565b865550611dee565b601f198416611d9c86611643565b60005b82811015611dc457848901518255600182019150602085019450602081019050611d9f565b86831015611de15784890151611ddd601f891682611cea565b8355505b6001600288020188555050505b50505050505056fea2646970667358221220714dcc5a9b493c5f8220cac4b3eaab41a6495f05404957539df2dc70c9ca22dd64736f6c63430008110033",
  "immutableReferences": {},
  "source": "// SPDX-License-Identifier: MIT\r\npragma solidity ^0.8.17;\r\n\r\ncontract Ballot {\r\n    struct Voter {\r\n        uint weight;\r\n        bool voted;\r\n        address delegate;\r\n        uint vote;\r\n    }\r\n\r\n    struct Proposal {\r\n        uint id;\r\n        string name;   \r\n        uint voteCount;\r\n        uint age;\r\n    }\r\n\r\n    address public owner;\r\n    mapping(address => Voter) public voters;\r\n    uint public voterCount;\r\n    uint public votedCount;\r\n    Proposal[] public proposals;\r\n    uint public proposalCount;\r\n\r\n    event GiveRightToVote(address indexed voter);\r\n    event Delegate(address indexed from, address indexed to);\r\n    event Vote(address indexed from, string proposalName);\r\n    event VotedCount(uint votedCount);\r\n\r\n    // constructor() {\r\n    //     owner = msg.sender;\r\n    //     voters[owner].weight = 1;\r\n    //     voterCount = 1;\r\n    //     votedCount = 0;\r\n    //     proposalCount = 0;\r\n    // }\r\n\r\n    constructor() {\r\n        owner = msg.sender;\r\n        voters[owner].weight = 1;\r\n        voterCount = 1;\r\n        votedCount = 0;\r\n        proposalCount = 0;\r\n    }\r\n\r\n    function addProposal(string calldata name, uint age) external {\r\n        require(\r\n            msg.sender == owner,\r\n            \"Only owner can add proposal.\"\r\n        );\r\n        proposals.push(Proposal({\r\n            id: ++proposalCount,\r\n            name: name,\r\n            voteCount: 0,\r\n            age: age\r\n        }));\r\n    }\r\n\r\n    function giveRightToVote(address voter) external {\r\n        require(\r\n            msg.sender == owner,\r\n            \"Only owner can give right to vote.\"\r\n        );\r\n        require(\r\n            !voters[voter].voted,\r\n            \"The voter already voted.\"\r\n        );\r\n        require(\r\n            voters[voter].weight == 0, \r\n            \"The voter already had the right\"\r\n        );\r\n\r\n        voters[voter].weight = 1;\r\n        voterCount++;\r\n\r\n        emit GiveRightToVote(voter);\r\n    }\r\n    \r\n    function delegate(address to) external {\r\n        Voter storage sender = voters[msg.sender];\r\n\r\n        require(\r\n            sender.weight != 0,\r\n            \"You have no right to vote\"\r\n        );\r\n        require(\r\n            !sender.voted,\r\n            \"You already voted.\"\r\n        );\r\n\r\n        require(\r\n            to != msg.sender, \r\n            \"Self-delegation is disallowed.\"\r\n        );\r\n\r\n        while (voters[to].delegate != address(0)) {\r\n            to = voters[to].delegate;\r\n\r\n            // We found a loop in the delegation, not allowed.\r\n            require(\r\n                to != msg.sender, \r\n                \"Found loop in delegation.\"\r\n            );\r\n        }\r\n\r\n        Voter storage _delegate = voters[to];\r\n\r\n        require(\r\n            _delegate.weight >= 1,\r\n            \"Cannot delegate to accounts that cannot vote\"\r\n        );\r\n\r\n        // Since sender is a reference, this\r\n        // modifies voters[msg.sender].\r\n        sender.voted = true;\r\n        sender.delegate = to;\r\n\r\n        if (_delegate.voted) {\r\n            _delegate.weight += sender.weight;\r\n            proposals[_delegate.vote].voteCount += sender.weight;\r\n            votedCount += sender.weight;\r\n            emit VotedCount(votedCount);\r\n        } else {\r\n            _delegate.weight += sender.weight;\r\n        }\r\n        \r\n        emit Delegate(msg.sender, to);\r\n    }\r\n\r\n    function vote(uint proposalId) external {\r\n        Voter storage sender = voters[msg.sender];\r\n        require(sender.weight != 0, \"Has no right to vote\");\r\n        require(!sender.voted, \"Already voted.\");\r\n        sender.voted = true;\r\n        sender.vote = proposalId;\r\n\r\n        proposals[proposalId - 1].voteCount += sender.weight;\r\n        votedCount += sender.weight;\r\n        \r\n        \r\n        emit Vote(msg.sender, proposals[proposalId - 1].name);\r\n        emit VotedCount(votedCount);\r\n    }\r\n\r\n    function getResult() public view\r\n            returns (Proposal[] memory _proposals)\r\n    {\r\n        _proposals = proposals;\r\n    }\r\n}",
  "sourcePath": "C:\\Users\\WBPC.VN\\VS Code\\Voting_system\\contracts\\Ballot.sol",
  "compiler": {
    "name": "solc",
    "version": "0.8.17+commit.8df45f5f.Emscripten.clang"
  },
  "schemaVersion": "3.4.11",
  "updatedAt": "2023-01-30T19:21:18.805Z",
  "networkType": "ethereum",
  "devdoc": {
    "kind": "dev",
    "methods": {},
    "version": 1
  },
  "userdoc": {
    "kind": "user",
    "methods": {},
    "version": 1
  }
}